:020000040000FA
:100000000C945D000C9485000C9485000C9484067F
:100010000C9484060C9484060C9485000C94850042
:100020000C9485000C9485000C9485000C9485003C
:100030000C9485000C9485000C9485000C9485002C
:100040000C943A060C9485000C9408060C94E20576
:100050000C9485000C9485000C9485000C9485000C
:100060000C9485000C9485000000000024002700FB
:100070002A0000000000250028002B0004040404CE
:100080000404040402020202020203030303030342
:10009000010204081020408001020408102001021F
:1000A00004081020000000080002010000030407FB
:1000B0000000000000000000B10611241FBECFEFB9
:1000C000D8E0DEBFCDBF13E0A0E0B1E0ECE4F0E2A9
:1000D00002C005900D92A030B107D9F723E0A0E04F
:1000E000B3E001C01D92A03FB207E1F710E0CDE5FB
:1000F000D0E004C02197FE010E941E10CC35D1072C
:10010000C9F70E94FC060C9424100C940000AF92D6
:10011000BF92CF92DF92EF92FF920F931F93CF93F4
:10012000DF936C017B018B01040F151FEB015E0156
:10013000AE18BF08C017D10759F06991D601ED91EB
:10014000FC910190F081E02DC6010995892B79F78A
:10015000C501DF91CF911F910F91FF90EF90DF903C
:10016000CF90BF90AF900895FC01538D448D252F03
:1001700030E0842F90E0821B930B541710F0CF9641
:10018000089501970895FC01918D828D981761F073
:10019000A28DAE0FBF2FB11D5D968C91928D9F5F8A
:1001A0009F73928F90E008958FEF9FEF0895FC0169
:1001B000918D828D981731F0828DE80FF11D858D1C
:1001C00090E008958FEF9FEF0895FC01918D228DAF
:1001D000892F90E0805C9F4F821B91098F73992734
:1001E00008958BE393E00E94E50021E0892B09F458
:1001F00020E0822F089580E090E0892B29F00E9472
:10020000F10081110C9400000895FC01A48DA80F49
:10021000B92FB11DA35ABF4F2C91848D90E0019648
:100220008F739927848FA689B7892C93A089B18968
:100230008C91837080648C93938D848D981306C009
:100240000288F389E02D80818F7D80830895EF926D
:10025000FF920F931F93CF93DF93EC0181E0888F80
:100260009B8D8C8D98131AC0E889F989808185FF50
:1002700015C09FB7F894EE89FF896083E889F989F2
:1002800080818370806480839FBF81E090E0DF91F4
:10029000CF911F910F91FF90EF900895F62E0B8D47
:1002A00010E00F5F1F4F0F731127E02E8C8D8E1102
:1002B0000CC00FB607FCFACFE889F989808185FF69
:1002C000F5CFCE010E940501F1CFEB8DEC0FFD2F94
:1002D000F11DE35AFF4FF0829FB7F8940B8FEA8924
:1002E000FB8980818062CFCFCF93DF93EC01888D33
:1002F0008823B9F0AA89BB89E889F9898C9185FDA1
:1003000003C0808186FD0DC00FB607FCF7CF8C912E
:1003100085FFF2CF808185FFEDCFCE010E940501E0
:10032000E9CFDF91CF91089590E0FC01EC55FF4FAC
:100330002491FC01E057FF4F3491FC01E458FF4F3A
:10034000E491EE23C9F0222339F0233001F1A8F41F
:10035000213019F1223029F1F0E0EE0FFF1FEE58A5
:10036000FF4FA591B4918FB7F894EC91611126C01D
:1003700030953E233C938FBF08952730A9F0283055
:10038000C9F0243049F7809180008F7D03C08091AF
:1003900080008F7780938000DFCF84B58F7784BD16
:1003A000DBCF84B58F7DFBCF8091B0008F778093BA
:1003B000B000D2CF8091B0008F7DF9CF3E2BDACF45
:1003C000CF93DF9390E0FC01E057FF4F24918458D6
:1003D0009F4FFC0184918823D1F090E0880F991FF2
:1003E000FC01E859FF4FA591B491FC01EE58FF4F75
:1003F000C591D49161110EC09FB7F8948C91E22FF2
:10040000E0958E238C932881E223E8839FBFDF91C0
:10041000CF9108958FB7F894EC91E22BEC938FBFB6
:10042000F6CF8E3008F08E508770806480937C0009
:1004300080917A00806480937A0080917A0086FDB2
:10044000FCCF809178009091790008953FB7F8949F
:100450008091030390910403A0910503B0910603DA
:1004600026B5A89B05C02F3F19F00196A11DB11D0F
:100470003FBFBA2FA92F982F8827BC01CD01620F4B
:10048000711D811D911D42E0660F771F881F991F06
:100490004A95D1F708958F929F92AF92BF92CF92D3
:1004A000DF92EF92FF926B017C010E9426024B01CA
:1004B0005C01C114D104E104F104B9F00E942602E8
:1004C000681979098A099B09683E7340810591057D
:1004D00080F321E0C21AD108E108F10888EE880E05
:1004E00083E0981EA11CB11CE4CFFF90EF90DF9039
:1004F000CF90BF90AF909F908F900895089590E017
:1005000080E0089561E088E00C949401CF93DF933C
:10051000EC0160E08E810E94940161E08E810E9476
:10052000940160E08E810E9494018BE891E0019734
:10053000F1F7DF91CF910895CF92DF92EF92FF9282
:100540000F931F93CF93DF936C017C0187E0E80E3C
:10055000F11CD0E0C0E0062F10E0B8010C2E02C064
:10056000759567950A94E2F76170F70181917F01B3
:100570000E9494012196C430D10579F7C601DF911C
:10058000CF911F910F91FF90EF90DF90CF900C943F
:100590008602CF92DF92EF92FF920F931F93CF9339
:1005A000DF93EC01F62E642F8C810E9494018D81E3
:1005B0008F3F19F060E00E9494010F2D10E08F85AD
:1005C00084FF25C06E0187E0C80ED11CF12CE12C00
:1005D000B8010E2C02C0759567950A94E2F7617018
:1005E000F60181916F010E949401FFEFEF1AFF0A5B
:1005F00088E0E816F10461F7CE01DF91CF911F91F9
:100600000F91FF90EF90DF90CF900C948602B8018D
:1006100084E0759567958A95E1F7CE010E949C026A
:100620006F2DCE01DF91CF911F910F91FF90EF9031
:10063000DF90CF900C949C0240E0682F88ED93E00F
:100640000C94C90281E00E941C038BE39FE1019797
:10065000F1F70895CF93DF93613029F09091E7038C
:1006600098609093E7036093EB031092EC0390E49F
:100670009093ED038093EE03805C8093EF0361E041
:100680008091DC030E94E0018091DD038F3F19F02F
:1006900061E00E94E00161E08091DE030E94E001E0
:1006A000C8EDD3E09E01285D33408091E70384FDCF
:1006B0000BC084E090E021962817390744F461E0EC
:1006C0008E810E94E001EECF88E090E0F4CF8BE3D2
:1006D0009DE00197F1F760E08091DC030E949401B6
:1006E00060E08091DE030E9494018091DD038F3FE2
:1006F00019F060E00E9494018091E70384FD34C00A
:1007000063E088ED93E00E949C02CBE4D6E4CE0146
:100710000197F1F763E088ED93E00E949C02219736
:10072000F1F763E088ED93E00E949C0283E592E09C
:100730000197F1F762E088ED93E00E949C028091BE
:10074000E70380620E941C0384E08093E8038CE04E
:100750000E941C030E94220382E08093E90386E04A
:10076000DF91CF910C941C0380620E941C038BE4E8
:1007700096E40197F1F78091E70380620E941C03E1
:1007800083E592E00197F1F78091E70380620E9490
:100790001C03D5CF643009F463E09091EB03691733
:1007A00010F06FEF690FE62FF0E0E852FC4F9489EC
:1007B000890F80680C941C0341E00E94C90281E00B
:1007C00090E00895FB0101900020E9F73197AF0117
:1007D000461B570BDC01ED91FC910280F381E02D6B
:1007E00009948F929F92AF92BF92EF92FF920F93D4
:1007F0001F93CF93DF93CDB7DEB7A1970FB6F894D1
:10080000DEBF0FBECDBF7C01FA01CB0119A22230A1
:1008100008F42AE08E010F5D1F4F822E912CB12C1F
:10082000A12CBF01A50194010E94C90FF901CA01C1
:100830006A300CF5605DD8016E938D01232B242B5B
:10084000252B79F790E080E0109721F0BD01C701DA
:100850000E94E203A1960FB6F894DEBF0FBECDBF93
:10086000DF91CF911F910F91FF90EF90BF90AF90CC
:100870009F908F900895695CDECFCF93DF93BC018A
:100880008BE393E00E94E203EC0160E872E08BE30B
:1008900093E00E94E2038C0F9D1FDF91CF9108959A
:1008A00082E291E00C943D042F923F924F925F922E
:1008B0006F927F928F929F92AF92BF92CF92DF9270
:1008C000EF92FF921F93CF93DF93EC016A017B01BC
:1008D000722EAB019601CB01B6010E94B00F6CE302
:1008E00071E0811126C046015701E894B7F82FEF57
:1008F0003FEF4FE75FE7C501B4010E94B00F8111E0
:100900000CC02FEF3FEF4FE75FE7C501B4010E9436
:10091000DF0D60E471E0181664F02FEF3FEF4FE752
:100920005FE4C701B6010E943E0F1816B4F464E4F8
:1009300071E0CE01DF91CF911F91FF90EF90DF909A
:10094000CF90BF90AF909F908F907F906F905F906F
:100950004F903F902F900C94E2032FEF3FEF4FE723
:100960005FECC701B6010E94DF0D87FDE0CF20E0FC
:1009700030E0A901C701B6010E94DF0D312C212C06
:1009800087FF0DC0E881F9810190F081E02D6DE2D3
:10099000CE0109951C01F7FAF094F7F8F09410E0F5
:1009A00060E070E080E09FE3711641F020E030E00D
:1009B00040E251E40E94E40D1F5FF6CFA7019601CB
:1009C0000E94730D2B013C010E945D0E4B015C01E6
:1009D0002AE0BC01A401CE010E94F1037C01E20CDB
:1009E000F31C1123E1F1C501B4010E948C0E9B019F
:1009F000AC01C301B2010E94720D4B015C01E881A0
:100A0000F9810190F081E02D6EE2CE010995E80EAA
:100A1000F91E115020F120E030E040E251E4C50120
:100A2000B4010E94430F2B013C010E945D0E4B015B
:100A3000B12CA12C2AE0B501A401CE010E94F10342
:100A4000E80EF91EC501B4010E948C0E9B01AC0199
:100A5000C301B2010E94720D4B015C01DACFC701E4
:100A6000DF91CF911F91FF90EF90DF90CF90BF90DB
:100A7000AF909F908F907F906F905F904F903F903E
:100A80002F9008950C94E2039F92AF92BF92CF9261
:100A9000DF92EF92FF920F931F93CF93DF935C014E
:100AA0007B018B01D0E0C0E0F80191908F016501DE
:100AB000CC0EDD1EC6010E945C0D981621F0692D3A
:100AC000C6010E94640D2196C430D10569F7C701A3
:100AD000DF91CF911F910F91FF90EF90DF90CF901A
:100AE000BF90AF909F90089567E173E090E080E041
:100AF0000E94440564E670E080E090E00E944B02B2
:100B000061E373E084E090E00E94440564E670E0F5
:100B100080E090E00E944B026BE173E088E090E09F
:100B20000E94440564E670E080E090E00E944B0281
:100B300063E173E08CE090E00E94440564E670E0BD
:100B400080E090E00E944B026FE073E080E190E073
:100B50000E94440564E670E080E090E00E944B0251
:100B60006FE173E084E190E00E94440564E670E088
:100B700080E090E00C944B02CF92DF92EF92FF92D4
:100B80000F931F93CF93DF93EB017B0124E0E20EE1
:100B9000F11C8B016C01C61AD70AC601800F911F88
:100BA0000E945C0DF80181938F01EE15FF05A9F7F6
:100BB000CE01DF91CF911F910F91FF90EF90DF90C9
:100BC000CF9008951F920F920FB60F9211242F937A
:100BD0003F934F935F936F937F938F939F93AF93C5
:100BE000BF93EF93FF938BE393E00E940501FF9186
:100BF000EF91BF91AF919F918F917F916F915F9195
:100C00004F913F912F910F900FBE0F901F9018950D
:100C10001F920F920FB60F9211242F938F939F93D1
:100C2000EF93FF93E0914B03F0914C038081E091AF
:100C30005103F091520382FD1BC0908180915403B7
:100C40008F5F8F7320915503821741F0E091540319
:100C5000F0E0E55CFC4F958F80935403FF91EF919A
:100C60009F918F912F910F900FBE0F901F9018950D
:100C70008081F4CF1F920F920FB60F9211242F9301
:100C80003F938F939F93AF93BF938091070390916E
:100C90000803A0910903B0910A033091020323E0F5
:100CA000230F2D3758F50196A11DB11D2093020386
:100CB0008093070390930803A0930903B0930A035A
:100CC0008091030390910403A0910503B091060362
:100CD0000196A11DB11D8093030390930403A0937B
:100CE0000503B0930603BF91AF919F918F913F9100
:100CF0002F910F900FBE0F901F90189526E8230F8D
:100D00000296A11DB11DD2CF1F920F920FB60F9266
:100D100011240F900FBE0F901F901895CF92DF9265
:100D2000EF92FF92CF93DF936B017C016DE28BE337
:100D300093E00E942701EC0144275527BA014C1982
:100D40005D096E097F092AE08BE393E00E94F103BD
:100D50008C0F9D1FDF91CF91FF90EF90DF90CF9090
:100D60000895EBE3F3E01382128288EE93E0A0E0B3
:100D7000B0E084839583A683B78388E091E0918374
:100D8000808385EC90E09587848784EC90E097875A
:100D9000868780EC90E0918B808B81EC90E0938B48
:100DA000828B82EC90E0958B848B86EC90E0978B25
:100DB000868B118E128E138E148EE8EDF3E0138263
:100DC00012828AE191E09183808382E084838FEFB5
:100DD000858383E0868384E0878385E0808786E05F
:100DE000818787E082871386148615861686178684
:100DF00061E080E10C942A03789484B5826084BD1C
:100E000084B5816084BD85B5826085BD85B581600E
:100E100085BD80916E00816080936E00109281008C
:100E20008091810082608093810080918100816047
:100E30008093810080918000816080938000809108
:100E4000B10084608093B1008091B0008160809394
:100E5000B00080917A00846080937A0080917A005B
:100E6000826080937A0080917A00816080937A001A
:100E700080917A00806880937A001092C100E0919E
:100E80004B03F0914C0382E08083E0914703F091A3
:100E900048031082E0914903F0914A038FEC80836C
:100EA00010925303E0914F03F091500386E080834A
:100EB000E0914D03F0914E03808180618083E09149
:100EC0004D03F0914E03808188608083E0914D0353
:100ED000F0914E03808180688083E0914D03F09112
:100EE0004E0380818F7D808360E08EE00E94E00170
:100EF00060E08FE00E94E00161E088E00E94E00194
:100F000061E08DE00E94E00164E084E10E942A0338
:100F10000E94220361E086E00E94CA0368E471E057
:100F200088ED93E00E94420562E085E00E94CA03DA
:100F300060E571E088ED93E00E94420561E08DE09C
:100F40000E9494010E9474056DE571E08BE393E0CB
:100F50000E94420564EF71E080E090E00E944B0245
:100F600062E671E08BE393E00E94420564EF71E07A
:100F700080E090E00E944B026EE671E08BE393E02C
:100F80000E94420564EF71E080E090E00E944B0215
:100F90000E94500464EF71E080E090E00E944B02F8
:100FA00082E891E00E943D0464EF71E080E090E00F
:100FB0000E944B026AE18BE393E00E94270164EFF9
:100FC00071E080E090E00E944B0289E891E00E948D
:100FD0003D0464EF71E080E090E00E944B0260E02D
:100FE0008DE00E9494010E94220367E173E090E08B
:100FF00080E00E94BC0564E670E080E090E00E9422
:101000004B0261E373E084E090E00E94BC0564E67B
:1010100070E080E090E00E944B026BE173E088E0BA
:1010200090E00E94BC0564E670E080E090E00E94E1
:101030004B026FE073E08CE090E00E94BC0564E638
:1010400070E080E090E00E944B0263E173E080E199
:1010500090E00E94BC0564E670E080E090E00E94B1
:101060004B026FE173E084E190E00E94BC0564E60E
:1010700070E080E090E00E944B0220E030E040E829
:101080005FE360913103709132038091330390915B
:1010900034030E943E0F181614F40E94820205E0E9
:1010A00010E022242394312C2FB7F8946091070389
:1010B000709108038091090390910A032FBF28EED5
:1010C00033E040E050E00E94EB0F49015A018BE30E
:1010D00093E00E94E500181619060CF07FC08BE320
:1010E00093E00E94C300823509F078C06AE070E0A6
:1010F00080E090E00E944B028BE393E00E94C300EB
:10110000853509F06BC06AE070E080E090E00E94F5
:101110004B028BE393E00E94C300813309F060C36C
:1011200084E690E090933A03809339030E94500440
:1011300064EF71E080E090E00E944B0287E991E06B
:101140000E943D046AEF70E080E090E00E944B0254
:101150006AE18BE393E00E94270164EF71E080E095
:1011600090E00E944B020E9482028091370390918E
:1011700038038C599F4F9093380380933703B801FD
:101180000E94B50F709336036093350320E030E082
:1011900040EA51E46091310370913203809133034E
:1011A000909134030E94730D609331037093320366
:1011B00080933303909334031092300310922F03E3
:1011C00010922E0310922D036AE070E080E090E010
:1011D0000E944B0280E592E00E943D0420E030E056
:1011E00040E251E460913103709132038091330306
:1011F000909134030E94DF0D18165CF180912F034B
:1012000090913003892B09F561E08DE00E949401F3
:101210000E9450046AEF70E080E090E00E944B0270
:101220008CE592E00E943D046AEF70E080E090E07F
:101230000E944B026AE18BE393E00E9427016AEF70
:1012400070E080E090E00E944B02309230032092E8
:101250002F038091350390913603892B61F410920E
:1012600038031092370361E08DE00E94940160E042
:1012700088E00E94940120E030E0A90160913103F0
:101280007091320380913303909134030E94DF0DFB
:10129000811133C061E08DE00E94940160E088E03C
:1012A0000E94940180912D0390912E03892B09F5C2
:1012B0000E94500464EF71E080E090E00E944B02D5
:1012C00082E792E00E943D046AEF70E080E090E0E7
:1012D0000E944B026AE18BE393E00E94270164ECD9
:1012E00079E080E090E00E944B0260E08DE00E9497
:1012F000940130922E0320922D0380913903909116
:101300003A03B8010E94B50F072E000C880B990B09
:101310000E948E0E9B01AC016091310370913203EB
:1013200080913303909134030E94E40D20E030E07B
:1013300048EC52E40E94430F6B017C0120E030E056
:1013400048E452E40E94DF0D63E872E0882361F014
:1013500020E030E048EC51E4C701B6010E94DF0D07
:10136000811117C065EB72E08BE393E00E944205A8
:1013700040913103509132036091330370913403F3
:1013800022E08BE393E00E9454048CEA92E00E94F6
:101390003D04C8EED3E08EE00E941102BC01990F1B
:1013A000880B990B0E948E0E29E034E240E95BE342
:1013B0000E94430F20E030E040E752E40E94430FD8
:1013C0000E94560E6B0170932C0360932B038FE0E9
:1013D0000E941102BC01990F880B990B0E948E0E7E
:1013E00029E034E240E95BE30E94430F29E334EB58
:1013F00048EE5EE30E94430F2B013C01B601DD0C79
:10140000880B990B0E948E0E9B01AC01C301B201A7
:101410000E94430F6B017C0120E030E0A9010E9493
:101420003E0F181624F0F7FAF094F7F8F094209194
:101430002703309128034091290350912A03C701C3
:10144000B6010E94730D6B017C01C0922703D092FC
:101450002803E0922903F0922A0360E070E0CB01B8
:101460000E944B02219709F096CF20E030E04AE736
:1014700054E4C701B6010E94E40D6B017C01C092E7
:101480002303D0922403E0922503F0922603C501A2
:10149000B4010E948E0EA70196010E94430F20E026
:1014A00030E041E655E40E94E40D60931F03709321
:1014B000200380932103909322032FB7F894809107
:1014C000070390910803A0910903B0910A032FBF6D
:1014D00080369A4EA105B10590F48091000190915B
:1014E0000101019761F410920B0310920C0310920A
:1014F0000D0310920E0310920101109200012FB7FC
:10150000F8948091070390910803A0910903B0918A
:101510000A032FBF40910B0350910C0360910D0300
:1015200070910E03841B950BA60BB70B81369A4E58
:10153000A105B105F8F02FB7F894809107039091B9
:101540000803A0910903B0910A032FBF80930B03F6
:1015500090930C03A0930D03B0930E0330920101FE
:10156000209200011092230310922403109225036D
:101570001092260320E030E040EC50E46091170325
:10158000709118038091190390911A030E943E0FE5
:1015900087FD0CC08091020190910301019731F405
:1015A00010920301109202010E948202C090170360
:1015B000D0901803E0901903F0901A0320E030E077
:1015C00040EC50E4C701B6010E943E0F87FD24C0E5
:1015D000A70196016091310370913203809133032A
:1015E000909134030E94730D609331037093320322
:1015F0008093330390933403C0921303D092140367
:10160000E0921503F092160310921703109218033C
:101610001092190310921A0320E030E040E85FE3D3
:1016200060911F0370912003809121039091220308
:101630000E943E0F87FD61C020E030E0A90160916B
:1016400031037091320380913303909134030E94EF
:101650003E0F18160CF051C08FE00E9411021816B0
:1016600019060CF04AC010921F031092200310922A
:1016700021031092220320E030E040E85FE3609114
:101680000F037091100380911103909112030E9437
:10169000730D60930F037093100380931103909365
:1016A000120320E030E040E85FE360911B0370919B
:1016B0001C0380911D0390911E030E94730D609383
:1016C0001B0370931C0380931D0390931E0320E063
:1016D00030E040E85FE36091310370913203809124
:1016E0003303909134030E94720D60933103709321
:1016F0003203809333039093340360E085E00E94CB
:10170000CA036EED72E088ED93E00E9442056AE044
:1017100070E080E090E00E944B0261E080E00E9477
:10172000CA036BEE72E088ED93E00E94420540919F
:10173000310350913203609133037091340322E0FE
:1017400088ED93E00E9454046AE070E080E090E04D
:101750000E944B0263E080E00E94CA036EEE72E0DA
:1017600088ED93E00E94420540911B0350911C03B9
:1017700060911D0370911E0322E088ED93E00E94AA
:1017800054046BEF72E088ED93E00E9442056AE03A
:1017900070E080E090E00E944B0264E080E00E94F4
:1017A000CA036AE070E080E090E00E944B0264E0CF
:1017B0008BE00E94CA036AE070E080E090E00E9443
:1017C0004B020E94740580E090E0892B09F46CCCF8
:1017D0000E94F100882309F464CC0E94000061CCCF
:1017E0008233D9F588EC90E090933A0380933903E3
:1017F0000E94500464EF71E080E090E00E944B0290
:1018000083EB91E00E943D046AEF70E080E090E09D
:101810000E944B026AE18BE393E00E94270164EF90
:1018200071E080E090E00E944B020E948202809171
:1018300037039091380388539F4F909338038093D8
:101840003703B8010E94B50F7093360360933503D8
:1018500020E030E040E252E49DCC8333D9F58CE2C5
:1018600091E090933A03809339030E94500464EF0F
:1018700071E080E090E00E944B028FEC91E00E94CA
:101880003D046AEF70E080E090E00E944B026AE164
:101890008BE393E00E94270164EF71E080E090E029
:1018A0000E944B020E94820280913703909138037C
:1018B000845D9E4F9093380380933703B8010E9454
:1018C000B50F709336036093350320E030E040E7B6
:1018D00052E460CC8433D9F580E991E090933A03E7
:1018E000809339030E94500464EF71E080E090E03F
:1018F0000E944B028BEE91E00E943D046AEF70E083
:1019000080E090E00E944B026AE18BE393E00E944A
:10191000270164EF71E080E090E00E944B020E949A
:101920008202809137039091380380579E4F9093A5
:10193000380380933703B8010E94B50F70933603C4
:101940006093350320E030E040EA52E423CC853355
:10195000D9F584EF91E090933A03809339030E9484
:10196000500464EF71E080E090E00E944B0287E059
:1019700092E00E943D046AEF70E080E090E00E94F7
:101980004B026AE18BE393E00E94270164EF71E070
:1019900080E090E00E944B020E9482028091370317
:1019A000909138038C509E4F909338038093370367
:1019B000B8010E94B50F709336036093350320E0A1
:1019C00030E048EC52E4E6CB843409F0FDCB0E94D1
:1019D000500464EF71E080E090E00E944B0263E20B
:1019E00072E08BE393E00E944205409135035091F1
:1019F0003603052E000C660B770B77FF51C0CB0129
:101A0000BA010E948E0660E872E08BE393E00E94C8
:101A1000E20360E372E08BE393E00E9442054091B1
:101A2000370350913803052E000C660B770B77FFB8
:101A30003DC0CB01BA010E948E068CE392E00E9469
:101A40003D0460E472E08BE393E00E944205409124
:101A5000310350913203609133037091340322E0DB
:101A60008BE393E00E94540460E872E08BE393E020
:101A70000E94E20380E892E00E943D0464EF71E07E
:101A800080E090E00E944B026AE18BE393E00E94C9
:101A9000270164EF71E080E090E00E944B028CCB64
:101AA0002AE08BE393E00E94F103ADCF2AE08BE3C1
:101AB00093E00E94F103C1CFF999FECF92BD81BDA1
:101AC000F89A992780B50895262FF999FECF1FBA65
:101AD00092BD81BD20BD0FB6F894FA9AF99A0FBE57
:101AE000019608955058BB27AA270E948A0D0C948E
:101AF000040F0E94F60E38F00E94FD0E20F039F41B
:101B00009F3F19F426F40C94F30E0EF4E095E7FBD6
:101B10000C94ED0EE92F0E94150F58F3BA176207C7
:101B200073078407950720F079F4A6F50C94370F16
:101B30000EF4E0950B2EBA2FA02D0B01B9019001E8
:101B40000C01CA01A0011124FF27591B99F0593F2C
:101B500050F4503E68F11A16F040A22F232F342F74
:101B60004427585FF3CF469537952795A795F040C2
:101B70005395C9F77EF41F16BA0B620B730B840BD7
:101B8000BAF09150A1F0FF0FBB1F661F771F881F8F
:101B9000C2F70EC0BA0F621F731F841F48F48795E7
:101BA00077956795B795F7959E3F08F0B0CF9395D9
:101BB000880F08F09927EE0F9795879508950E9452
:101BC000C90E08F481E008950E94F80D0C94040FEA
:101BD0000E94FD0E58F00E94F60E40F029F45F3F7F
:101BE00029F00C94ED0E51110C94380F0C94F30E57
:101BF0000E94150F68F39923B1F3552391F3951BB8
:101C0000550BBB27AA2762177307840738F09F5F1D
:101C10005F4F220F331F441FAA1FA9F335D00E2E8A
:101C20003AF0E0E832D091505040E695001CCAF7F7
:101C30002BD0FE2F29D0660F771F881FBB1F2617BA
:101C400037074807AB07B0E809F0BB0B802DBF0191
:101C5000FF2793585F4F3AF09E3F510578F00C9460
:101C6000ED0E0C94380F5F3FE4F3983ED4F3869565
:101C700077956795B795F7959F5FC9F7880F911D81
:101C80009695879597F90895E1E0660F771F881F6D
:101C9000BB1F621773078407BA0720F0621B730B20
:101CA000840BBA0BEE1F88F7E09508950E945D0E35
:101CB0006894B1110C94380F08950E941D0F88F09C
:101CC0009F5798F0B92F9927B751B0F0E1F0660F00
:101CD000771F881F991F1AF0BA95C9F714C0B13041
:101CE00091F00E94370FB1E008950C94370F672FE1
:101CF000782F8827B85F39F0B93FCCF38695779570
:101D00006795B395D9F73EF4909580957095619558
:101D10007F4F8F4F9F4F0895E89409C097FB3EF483
:101D200090958095709561957F4F8F4F9F4F992328
:101D3000A9F0F92F96E9BB279395F69587957795A6
:101D40006795B795F111F8CFFAF4BB0F11F460FF66
:101D50001BC06F5F7F4F8F4F9F4F16C0882311F0BE
:101D600096E911C0772321F09EE8872F762F05C0D2
:101D7000662371F096E8862F70E060E02AF09A956D
:101D8000660F771F881FDAF7880F9695879597F962
:101D90000895990F0008550FAA0BE0E8FEEF1616FC
:101DA0001706E807F907C0F012161306E407F5074F
:101DB00098F0621B730B840B950B39F40A2661F0C3
:101DC000232B242B252B21F408950A2609F4A14066
:101DD000A6958FEF811D811D089597F99F6780E873
:101DE00070E060E008959FEF80EC089500240A946D
:101DF0001616170618060906089500240A941216E6
:101E00001306140605060895092E0394000C11F418
:101E1000882352F0BB0F40F4BF2B11F460FF04C0C5
:101E20006F5F7F4F8F4F9F4F089557FD9058440F1E
:101E3000551F59F05F3F71F04795880F97FB991F29
:101E400061F09F3F79F087950895121613061406E6
:101E5000551FF2CF4695F1DF08C016161706180673
:101E6000991FF1CF86957105610508940895E8944E
:101E7000BB2766277727CB0197F908950E94C90EE3
:101E800008F48FEF08950E94560F0C94040F0E94DF
:101E9000F60E38F00E94FD0E20F0952311F00C9400
:101EA000ED0E0C94F30E11240C94380F0E94150FB4
:101EB00070F3959FC1F3950F50E0551F629FF0019D
:101EC000729FBB27F00DB11D639FAA27F00DB11DB6
:101ED000AA1F649F6627B00DA11D661F829F22273F
:101EE000B00DA11D621F739FB00DA11D621F839FC6
:101EF000A00D611D221F749F3327A00D611D231F9C
:101F0000849F600D211D822F762F6A2F11249F57E9
:101F100050409AF0F1F088234AF0EE0FFF1FBB1FEC
:101F2000661F771F881F91505040A9F79E3F5105AB
:101F300080F00C94ED0E0C94380F5F3FE4F3983E64
:101F4000D4F3869577956795B795F795E7959F5F55
:101F5000C1F7FE2B880F911D9695879597F90895E7
:101F60000E94C90E880B990B089597FB072E16F453
:101F7000009407D077FD09D00E940A1007FC05D015
:101F80003EF4909581959F4F0895709561957F4F90
:101F90000895A1E21A2EAA1BBB1BFD010DC0AA1FAA
:101FA000BB1FEE1FFF1FA217B307E407F50720F0C2
:101FB000A21BB30BE40BF50B661F771F881F991F3D
:101FC0001A9469F760957095809590959B01AC0186
:101FD000BD01CF010895052E97FB1EF400940E94C9
:101FE000021057FD07D00E94C90F07FC03D04EF422
:101FF0000C94021050954095309521953F4F4F4FCE
:102000005F4F089590958095709561957F4F8F4FA4
:102010009F4F0895AA1BBB1B51E107C0AA1FBB1FFE
:10202000A617B70710F0A61BB70B881F991F5A9564
:10203000A9F780959095BC01CD010895EE0FFF1F83
:102040000590F491E02D0994F894FFCF0100010070
:102050000000000027018700B4007401E500C30000
:10206000D70000000000DC0387007F027E0241549D
:102070002B434D47533D222B3235353637373734D6
:1020800037363838220D0A006E616E00696E6600C0
:102090006F76660057454C434F4D4500456E65725F
:1020A0006779204D657465720041540D0A004154F2
:1020B0002B434D47463D310D0A0041542B434E4DB5
:1020C000493D322C322C302C302C300D0A004F4E32
:1020D0002047534D0041542B434D47443D312C3450
:1020E0000D0A005265636861726765204D6574650D
:1020F000722062792031303020545A530D0A005238
:1021000065636861726765204D65746572206279E8
:102110002032303020545A530D0A005265636861F2
:10212000726765204D6574657220627920333030A6
:1021300020545A530D0A0052656368617267652026
:102140004D657465722062792034303020545A53C2
:102150000D0A005265636861726765204D6574659C
:10216000722062792035303020545A530D0A0054C1
:102170004F54414C20554E4954533D005041494421
:102180002050524943453D00545A5300554E49543E
:10219000532052454D41494E45443D0041542B4347
:1021A0004D47443D310D0A005265636861726765B1
:1021B00020596F7572204D657465720D0A00556E59
:1021C00069742046696E6973686564200D0A005958
:1021D0006F752068617665207573656420353025DC
:1021E000206F6620796F757220756E6974732E206A
:1021F00052656D61696E200020556E6974730D0A19
:1022000000596F75206861766520757365642037A5
:102210003525206F6620796F757220756E6974732D
:102220002E2052656D61696E2000454E455247591A
:10223000204D4554455200553D00436F6E73756DFA
:0C2240007074696F6E3D004B5768000021
:107E0000112484B714BE81FFF0D085E080938100F7
:107E100082E08093C00088E18093C10086E0809377
:107E2000C20080E18093C4008EE0C9D0259A86E02C
:107E300020E33CEF91E0309385002093840096BBD3
:107E4000B09BFECF1D9AA8958150A9F7CC24DD24C4
:107E500088248394B5E0AB2EA1E19A2EF3E0BF2EE7
:107E6000A2D0813461F49FD0082FAFD0023811F036
:107E7000013811F484E001C083E08DD089C08234E0
:107E800011F484E103C0853419F485E0A6D080C0E4
:107E9000853579F488D0E82EFF2485D0082F10E0AE
:107EA000102F00270E291F29000F111F8ED06801E7
:107EB0006FC0863521F484E090D080E0DECF843638
:107EC00009F040C070D06FD0082F6DD080E0C81688
:107ED00080E7D80618F4F601B7BEE895C0E0D1E017
:107EE00062D089930C17E1F7F0E0CF16F0E7DF06D8
:107EF00018F0F601B7BEE89568D007B600FCFDCFD4
:107F0000A601A0E0B1E02C9130E011968C91119780
:107F100090E0982F8827822B932B1296FA010C0160
:107F200087BEE89511244E5F5F4FF1E0A038BF0790
:107F300051F7F601A7BEE89507B600FCFDCF97BE46
:107F4000E89526C08437B1F42ED02DD0F82E2BD052
:107F50003CD0F601EF2C8F010F5F1F4F84911BD097
:107F6000EA94F801C1F70894C11CD11CFA94CF0C13
:107F7000D11C0EC0853739F428D08EE10CD085E9AC
:107F80000AD08FE07ACF813511F488E018D01DD067
:107F900080E101D065CF982F8091C00085FFFCCF94
:107FA0009093C60008958091C00087FFFCCF809118
:107FB000C00084FD01C0A8958091C6000895E0E648
:107FC000F0E098E1908380830895EDDF803219F02E
:107FD00088E0F5DFFFCF84E1DECF1F93182FE3DFCA
:107FE0001150E9F7F2DF1F91089580E0E8DFEE27F6
:047FF000FF270994CA
:027FFE00040479
:00000001FF
